:020000040800F2
:1000000000000220A91400083D1400083F14000855
:1000100041140008431400084514000800000000C3
:10002000000000000000000000000000471400086D
:1000300049140008000000004B1400084D1400088B
:10004000F9140008F9140008F9140008F91400085C
:10005000F9140008F9140008F9140008F91400084C
:10006000F9140008F9140008F9140008F91400083C
:10007000F9140008F9140008F9140008F91400082C
:10008000F9140008F9140008F9140008F91400081C
:1000900051140008F9140008F9140008F9140008B4
:1000A000F9140008F9140008F9140008F9140008FC
:1000B000F9140008F9140008F9140008F9140008EC
:1000C000F9140008F9140008F9140008F9140008DC
:1000D000F9140008F9140008F9140008F9140008CC
:1000E000F9140008F9140008F9140008F9140008BC
:1000F000F9140008F9140008F9140008F9140008AC
:10010000F9140008F9140008F9140008F91400089B
:10011000F9140008F9140008F9140008F91400088B
:10012000F9140008F9140008F9140008F91400087B
:10013000F9140008F9140008F9140008F91400086B
:10014000F9140008F9140008F9140008F91400085B
:10015000F9140008F9140008F9140008F91400084B
:10016000F9140008F9140008F9140008F91400083B
:10017000F9140008F9140008F91400080000000040
:08018000F9140008F91400084D
:1001880010B5054C237833B9044B13B10448AFF3C9
:1001980000800123237010BD0C0000200000000027
:1001A8005415000808B5034B1BB103490348AFF3C6
:1001B800008008BD00000000100000205415000851
:1001C80053B94AB9002908BF00281CBF4FF0FF31B6
:1001D8004FF0FF3000F06EB9ADF1080C6DE904CEB8
:1001E80000F006F8DDF804E0DDE9022304B070470A
:1001F8002DE9F047089D04468C46002B40F083808B
:100208008A42174647D9B2FA82F242B1C2F12000B7
:1002180024FA00F09140974040EA010C94404FEADC
:100228001748230CBCFBF8F61FFA87FE08FB16C11B
:1002380043EA014306FB0EF1994209D9FB1806F17E
:10024800FF3080F01981994240F21681023E3B440A
:100258005B1AA4B2B3FBF8F008FB103344EA03447A
:1002680000FB0EFEA64509D93C1900F1FF3380F0CA
:100278000581A64540F2028102383C4440EA064026
:10028800A4EB0E0400261DB1D4400023C5E90043A9
:100298003146BDE8F08702B9FFDEB2FA82F2002AE1
:1002A80050D1CB1B4FEA174E1FFA87F80126B3FB34
:1002B800FEFC210C0EFB1C3341EA034108FB0CF346
:1002C8008B4207D979180CF1FF3002D28B4200F229
:1002D800E9808446C91AA3B2B1FBFEF00EFB1011E7
:1002E80043EA014408FB00F8A04507D93C1900F18E
:1002F800FF3302D2A04500F2D9801846A4EB0804C7
:1003080040EA0C40BFE78B4209D9002D00F0B180CC
:100318000026C5E9000130463146BDE8F087B3FA4A
:1003280083F6002E4AD18B4202D3824200F2B88073
:10033800841A61EB030101208C46002DA8D0C5E981
:10034800004CA5E7C2F1200320FA03F6974001FA12
:1003580002F04FEA174ED9403043030CB1FBFEF6CA
:100368001FFA87F80EFB161143EA014306FB08F152
:10037800994204FA02F409D9FB1806F1FF3C80F00F
:100388008D80994240F28A80023E3B445B1A81B2DA
:10039800B3FBFEF00EFB103341EA034100FB08F308
:1003A8008B4207D9791800F1FF3C73D28B4271D97F
:1003B80002383944CB1A40EA064678E7C6F1200CE1
:1003C80003FA06F422FA0CF31C4320FA0CF701FA9C
:1003D80006F34FEA144E21FA0CF11F433B0CB1FB14
:1003E800FEF91FFA84F80EFB191143EA014109FBD3
:1003F80008FA8A4502FA06F200FA06F308D96118E3
:1004080009F1FF3048D28A4546D9A9F102092144A9
:10041800A1EB0A01BFB2B1FBFEF00EFB101147EAD7
:10042800014700FB08F8B84507D9E71900F1FF3183
:100438002ED2B8452CD90238274440EA0940A7EB08
:100448000807A0FB02894F45C64649461AD317D06C
:100458005DB1B3EB0E0267EB010707FA0CFCF24043
:100468004CEA0202F740C5E9002700263146BDE8FC
:10047800F0872E4628460BE70646E9E61846FDE6CD
:100488004345E5D2B8EB020E69EB04010138DFE71A
:100498000846D2E760468DE78146B9E7664675E7C4
:1004A80030464AE7ACF1020C394413E702383C44C1
:1004B80024E700BF704700BF38B50E4A0E4B05460B
:1004C80018784FF47A73B3FBF0F31068B0FBF3F0CD
:1004D80000F0ACFA044658B90F2D09D8024629464F
:1004E8004FF0FF3000F062FA044B20461D6038BD23
:1004F8000120FCE708000020000000200400002084
:1005080008B50B4B1A6842F400721A601A6842F474
:1005180080621A601A6842F480721A60032000F040
:1005280033FA0020FFF7C8FF00F026FF002008BDBF
:10053800003C0240034A044B11681B780B441360CB
:10054800704700BF2800002000000020014B1868F9
:10055800704700BF2800002038B50446FFF7F6FFB3
:10056800631C1CBF054B1B78054618BFE418FFF732
:10057800EDFF431BA342FAD338BD00BF00000020A3
:1005880038B5044600286ED090F820300BB900F03A
:1005980011FF2268136823F002031360FFF7D6FFE8
:1005A800054623685A68910751D41A6842F0010237
:1005B8001A60FFF7CBFF054623685A68D20754D55F
:1005C800227E012A1A680CBF42F0800222F08002C3
:1005D8001A60627E012A1A680CBF42F0400222F0BB
:1005E80040021A60A27E012A1A680CBF42F020025B
:1005F80022F020021A60E27E012A1A680CBF22F05B
:10060800100242F010021A60227F012A1A680CBFF9
:1006180042F0080222F008021A60627F012A1A6872
:100628000CBF42F0040222F004021A60D4E902214D
:100638000A4321690A4361690A43616801390A4327
:10064800DA6100200123606284F8203038BDFFF7AA
:100658007DFF401B0A28A4D9636A43F40033636210
:10066800052384F820300120F0E7FFF76FFF401BD7
:100678000A28A1D9F0E770B590F82030012B04467C
:10068800DDB220D10268022380F82030136823F0FD
:1006980001031360FFF75AFF064623685B6813F0EF
:1006A800010302D163621D460BE0FFF74FFF801B79
:1006B8000A28F2D9636A43F400336362052384F895
:1006C8002030284670BD436A43F400234362012565
:1006D800F7E7F0B590F820500668013D012DB468A1
:1006E80043D814F0E05F3CD0C4F30164032C4FF00E
:1006F800010505D1436A43F40003436201202AE05F
:10070800A5401D60D1E9020704F1180320BB086861
:1007180047EA40501B01F05006EB04130D69C3F87B
:100728008451097D012908BFD3F884114FEA0410C8
:1007380004BF41F48071C3F8841106445168C6F8B7
:100748008C111268C6F88821D3F8802142F0010282
:10075800C3F880210020F0BD4D68384340EAC50049
:10076800D8E7436A43F40013C7E7436A43F4802396
:10077800C3E77047704770477047704770477047C6
:100788007047704770477047704770472DE9F84FBA
:1007980003685E69D3F804909F68D3F80CB0D3F867
:1007A80010A0D3F8188016F00104054622D017F0DF
:1007B800010407D00122B9079A6040F1A580FFF72C
:1007C800D8FF0024FB0509D52B684FF48072B805C3
:1007D8009A6040F1A7802846FFF7CCFFFB0309D5B4
:1007E8002B684FF48032B8039A6040F1A9802846FC
:1007F800FFF7C1FF330707D51BF0100F1FBF2B688A
:10080800102244F40074DA60770708D51BF0080F4B
:1008180005D02B680822DA602846FFF7B1FFB00739
:1008280006D52B68DB68990702D02846FFF7A7FF93
:10083800720607D51AF0100F1FBF2B68102244F458
:1008480080641A61B30608D51AF0080F05D02B6822
:1008580008221A612846FFF795FFF70606D52B6888
:100868001B69980702D02846FFF78BFFB10308D50C
:1008780019F0100F05D02B6810225A602846FFF790
:1008880082FFF20308D519F0080F05D02B6808225B
:100898005A602846FFF778FF33042CD519F0040F67
:1008A8002A6826D0F70504D518F0010F18BF44F0C0
:1008B8000104B00504D518F0020F18BF44F0020473
:1008C800710504D518F0040F18BF44F0040433056B
:1008D8000FD518F070030CD0402B4FD03ED8202BEA
:1008E80046D0302B47D0102B3FD0936923F07003AC
:1008F8009361042353602CB16B6A1C436C622846D5
:10090800FFF743FFBDE8F88F7A0705D417F008040E
:1009180005D1FFF731FF55E74FF4006452E74FF474
:1009280080544FE7790502D544F4005456E73A0558
:1009380002D544F4804451E72846FFF71EFF4DE7EF
:10094800790302D544F4004454E73A0302D544F449
:1009580080344FE72846FFF711FF4BE7502B10D0A4
:10096800602BC2D144F48074BFE744F00804BCE7AC
:1009780044F01004B9E744F02004B6E744F040041A
:10098800B3E744F08004B0E70749CA6822F4E0629C
:100998000302120403F4E063120C134343F0BF6331
:1009A80043F40033CB60704700ED00E0164B30B5E0
:1009B800DC68C4F30224C4F10705231D042D28BFF5
:1009C8000425062B4FF0FF338CBF033C002403FAA9
:1009D80005F521EA0501A34022EA0302A140002807
:1009E80041EA0203ACBF00F16040084A4FEA031332
:1009F800B8BF00F00F00DBB2AABF00F56140135486
:100A080080F8003330BD00BF00ED00E014ED00E0D9
:100A1800002808DB4209012300F01F0003FA00F058
:100A2800014B43F82200704700E100E00138B0F1C3
:100A3800807F0AD2064B074A5860F02182F82310BB
:100A48000020072298601A6070470120704700BF95
:100A580010E000E000ED00E02DE9F74FDFF8A89185
:100A6800674A00230D6801249C4004EA050CAC4346
:100A780040F0B0804D6805F003044FEA43080326B0
:100A8800671E06FA08F6012F6FEA060634D887684B
:100A980007EA060ECF6807FA08F747EA0E078760E5
:100AA800476827EA0C0EC5F300179F4047EA0E0770
:100AB8004760C76807EA060E8F6807FA08F747EA2B
:100AC8000E07022CC76019D14FEAD30A00EB8A0A35
:100AD80003F0070BDAF820704FEA8B0B4FF00F0E7C
:100AE8000EFA0BFE27EA0E0E0F6907FA0BF747EA14
:100AF8000E07CAF8207001E0032CDAD1076804FA5F
:100B080008F43E402643EC00066063D54FF0000A27
:100B1800CDF804A0D9F844603A4C46F48046C9F8A8
:100B28004460D9F8446006F480460196019E23F09B
:100B3800030606F1804606F59C3603F0030ED6F848
:100B480008804FEA8E0E0F2707FA0EF7A04228EA10
:100B5800070746D004F58064A04244D004F58064B9
:100B6800A04242D004F58064A04240D004F58064DD
:100B7800A0423ED004F58064A0423CD004F58064D5
:100B8800A0423AD004F58064A0420CBF0724082490
:100B980004FA0EF43C43B46014686FEA0C06EF03E1
:100BA80054BF34404CEA040414605468AF0354BF83
:100BB80034404CEA040454609468EF0254BF344053
:100BC8004CEA04049460D468AD0254BF34404CEA43
:100BD8000404D4600133102B7FF444AF03B0BDE8A4
:100BE800F08F5446D4E70124D2E70224D0E7032447
:100BF800CEE70424CCE70524CAE70624C8E700BFEB
:100C0800003C0140000002400038024003691942DC
:100C180014BF0120002070470AB1816170470904A0
:100C2800FBE700002DE9F341044640B30368DD0704
:100C380010D4236898075ED423681A0700F1A080AF
:100C480023685B0700F1BE80A069002840F01F817F
:100C580000202BE0A64B9A6802F00C02042A07D069
:100C68009A6802F00C02082A0BD15A68510208D57A
:100C78009F4B1B689A03DCD56368002BD9D10120F0
:100C880014E06268B2F5803F13D11A6842F48032EA
:100C98001A60FFF75BFC964E054633689B03C8D481
:100CA800FFF754FC401B6428F7D9032002B0BDE8C5
:100CB800F0818F4DB2F5A02F2B6807D143F4802324
:100CC8002B602B6843F480332B60E2E723F48033F6
:100CD8002B602B6823F480232B60002AD9D1FFF7DF
:100CE80035FC06462B689F03A3D5FFF72FFC801B16
:100CF8006428F7D9D9E77E4B9A6812F00C0F07D011
:100D08009A6802F00C02082A11D15B685E020ED4C0
:100D1800774B1A68950702D5E268012AAFD11A689D
:100D2800216922F0F80242EAC1021A6084E7E26807
:100D3800704BB2B101221A60FFF708FC6C4D0646F1
:100D48002B68980707D52B68226923F0F80343EA34
:100D5800C2032B6070E7FFF7F9FB801B0228EFD96D
:100D6800A3E71A60FFF7F2FB614E0546336899075F
:100D78007FF562AFFFF7EAFB401B0228F6D994E73C
:100D880062695D4B7AB101221A60FFF7DFFB584EAA
:100D98000546736F9F073FF553AFFFF7D7FB401B1F
:100DA8000228F6D981E71A60FFF7D0FB504E0546B6
:100DB800736F98077FF544AFFFF7C8FB401B022805
:100DC800F6D972E74A4B1A6C12F0805228D1019278
:100DD8001A6C42F080521A641B6C03F08053019322
:100DE800019B0127454D2B68D9051BD5A368404DAC
:100DF800012B27D12B6F43F001032B67FFF7A6FBCD
:100E08003B4E054641F28838336F9B0739D5002F92
:100E18003FF41AAF364A136C23F08053136413E778
:100E28000027DFE72B6843F480732B60FFF78EFB06
:100E380006462B68DA05D9D4FFF788FB801B022801
:100E4800F7D932E7052B04D12B6F43F004032B6746
:100E5800D0E72A6F22F001022A672A6F22F00402E3
:100E68002A67002BCAD1FFF771FB41F28838064682
:100E78002B6F9807CBD5FFF769FB801B4045F7D947
:100E880013E7FFF763FB401B4045BDD90DE7184D3D
:100E9800AB6803F00C03082B47D0194E0023022837
:100EA800336035D1FFF752FB07462B68990129D4E7
:100EB800D4E907321343626A43EA8213E26A43EAD7
:100EC8000263A26A5208013A43EA02436B600123B3
:100ED8003360FFF73BFB064D04462B689A013FF54C
:100EE800B7AEFFF733FB001B0228F6D9DDE600BFDB
:100EF8000038024000004742800E47420070004020
:100F080060004742FFF722FBC01B0228CDD9CCE680
:100F1800FFF71CFB04462B689B017FF599AEFFF792
:100F280015FB001B0228F6D9BFE601283FF4BEAE28
:100F38006B68E26903F4800191427FF4A0AE216AF4
:100F480003F03F028A427FF49AAE616A47F6C072A4
:100F58001A40B2EB811F7FF492AEA26A520803F4E2
:100F68004031013AB1EB024F7FF489AEE26A03F0F7
:100F78007063B3EB026F3FF46BAE80E6134908B5BC
:100F88008B6803F00C03042B1CD0082B1CD14A6877
:100F98004B68496813F4800314BF0D480D48C1F32A
:100FA800881118BF002302F03F02A1FB0001FFF7E0
:100FB80007F9064B5B68C3F3014301335B00B0FBE1
:100FC800F3F008BD0248FCE70248FAE7003802409F
:100FD80000127A000024F4002DE9F0410D46044681
:100FE80010B90120BDE8F081444B1A6802F00702ED
:100FF8008A4228D3226897072DD4D00741D43F4B83
:101008001A6802F00702AA4266D8226851076CD40F
:10101800130707D53A4A2169936823F4604343EAE2
:10102800C1039360FFF7AAFF354B364A9B68C3F3A9
:101038000313D35CD840344B1860344B1868FFF75F
:101048003BFA0020CEE7CAB21A701B6803F0070308
:101058008B42C6D1CEE72A4B12F0040F1EBF996807
:1010680041F4E0519960160742BF996841F4604124
:1010780099602349A0688B6823F0F00303438B60D1
:10108800BBE762681E4B012A1CD11B6813F4003FA2
:10109800A7D01B4EB36823F003031343B360FFF7D5
:1010A80055FA41F288380746B368626803F00C03C2
:1010B800B3EB820FA3D0FFF749FAC01B4045F3D921
:1010C80003208FE7911E01291B6802D813F0007FC7
:1010D800DEE713F0020FDBE7EAB21A701B6803F0D1
:1010E8000703AB427FF47DAF8FE70549E0688B6863
:1010F80023F4E05303438B608AE700BF003C0240BF
:10110800003802406C150008080000200400002088
:10111800014B1868704700BF080000200D4BDA68C3
:1011280022F08072DA60DA6842F08072DA600A4B84
:101138001A6822F001021A601A6842F001021A6065
:1011480000225A6000BF00BF00BF5868B0FA80F0A4
:1011580040097047F0ED00E0001000E037B5094C99
:1011680001906568FFF7D4FF019B074AB0FBF2F0D6
:10117800434301936368019A5B1B9342FAD303B01C
:1011880030BD00BF001000E040420F0038B501221A
:10119800022110480F4CFFF73FFD0A20FFF7DEFF42
:1011A8000C4800220221FFF737FD04212046FFF7F3
:1011B8002DFD0028F9D0074D002404212846FFF70B
:1011C80025FD08B9600038BD01200134FFF7C6FFCE
:1011D800F3E700BF0000024030B595B010220021AF
:1011E8000AA800F0ABF90021142203A800F0A6F920
:1011F80000241C4B01941A6C42F080521A641B6C38
:1012080003F080530193019B174B02941A6842F430
:1012180080421A601B6803F480430293029B0122F8
:101228004FF48033CDE9082302254FF48003A82228
:10123800CDE90E5308A80423CDE91032CDE91253A5
:10124800FFF7F0FC0F23CDE903354FF4A0514FF41D
:101258008053CDE9061303A805210594FFF7BCFECA
:1012680015B030BD003802400070004080B588B02D
:10127800FFF746F9FFF7B0FF1422002103A800F09A
:101288005DF90024334B00941A6B3348334D42F018
:1012980080021A631A6B02F080020092009A01948D
:1012A8001A6B42F001021A631A6B02F001020192F2
:1012B800019A02941A6B42F002021A631B6B03F044
:1012C8000203224602930221029B0127FFF7A4FC96
:1012D8000223214803A9CDE903370426CDE90544B3
:1012E800FFF7BAFB1C48059403A9CDE90364FFF78F
:1012F800B3FB1B4AAC611523C5E900234FF4102149
:101308004FF48003AC832846C5E90413C5E90244B9
:10131800FFF736F9FFF702FF124B134A1F61284601
:10132800C3E902645A60FFF7A6F9104E104D114C3C
:10133800FFF72CFF0E4A30600A493A23B0FBF3F05E
:10134800234628600548FFF7C4F91420FFF704F97D
:10135800EEE700BF0038024000000240780000209D
:10136800006400405C0000207698F00A54000020D9
:10137800740000205800002082B00D4B002100911D
:101388005A6C42F480425A645A6C02F480420092C9
:10139800009A01911A6C42F080521A641B6C03F097
:1013A80080530193019B072002B0FFF7EDBA00BFFD
:1013B8000038024010B5044688B01422002103A862
:1013C80000F0BCF82268194B9A422CD103F5EA3395
:1013D800002401941A6C164842F000721A641A6CC0
:1013E80002F000720192019A02941A6B42F0020212
:1013F8001A631B6B059403F0020302934FF44072C7
:10140800029B0223CDE9032303210923CDE9061317
:1014180003A9FFF721FB142001222146FFF7C6FA92
:101428001420FFF7F5FA08B010BD00BF00640040B3
:10143800000402407047FEE7FEE7FEE7FEE770475C
:1014480070477047FFF776B80148FFF79FB900BFAC
:10145800780000200F49D1F8883043F47003C1F8B0
:1014680088300D4B1A68002042F001021A6098601B
:101478001A6822F0847222F480321A60074A5A608D
:101488001A6822F480221A60D8604FF000638B60DB
:10149800704700BF00ED00E0003802401030002423
:1014A800DFF834D0002103E00C4B5B584350043183
:1014B8000B480C4B42189A42F6D30B4A02E0002321
:1014C80042F8043B094B9A42F9D3FFF7C3FF00F0F7
:1014D80011F8FFF7CBFE7047000002208C150008BA
:1014E800000000200C0000200C000020A0000020BC
:1014F800FEE7000070B50D4D0D4C641BA4100026CE
:10150800A64209D10B4D0C4C00F020F8641BA41026
:101518000026A64205D170BD55F8043B9847013610
:10152800EEE755F8043B98470136F2E784150008C2
:10153800841500088415000888150008024403462D
:10154800934200D1704703F8011BF9E7F8B500BFD3
:10155800F8BC08BC9E467047F8B500BFF8BC08BC8C
:041568009E467047E4
:10156C000000000000000000010203040607080947
:08157C007CECFF7F0100000080
:04158400AD010008AD
:0415880089010008CD
:0C158C0001000000100000000024F4002A
:04000005080014A932
:00000001FF
