:020000040800F2
:10000000000002203D160008691500086B15000865
:100010006D1500086F15000871150008000000003C
:100020000000000000000000000000007315000840
:100030007515000800000000771500087915000804
:100040008D1600088D1600088D1600088D16000804
:100050008D1600088D1600087D1500088D16000805
:100060008D1600088D1600088D1600088D160008E4
:100070008D1600088D1600088D1600088D160008D4
:100080008D1600088D1600088D1600088D160008C4
:10009000BD1500088D1600088D1600088D16000885
:1000A0008D1600088D1600088D1600088D160008A4
:1000B0008D1600088D1600088D1600088D16000894
:1000C0008D1600088D1600088D1600088D16000884
:1000D0008D1600088D1600088D1600088D16000874
:1000E0008D1600088D1600088D1600088D16000864
:1000F0008D1600088D1600088D1600088D16000854
:100100008D1600088D1600088D1600088D16000843
:100110008D1600088D1600088D1600088D16000833
:100120008D1600088D1600088D1600088D16000823
:100130008D1600088D1600088D1600088D16000813
:100140008D1600088D1600088D1600088D16000803
:100150008D1600088D1600088D1600088D160008F3
:100160008D1600088D1600088D1600088D160008E3
:100170008D1600088D1600088D160008000000007E
:080180008D1600088D16000821
:1001880010B5054C237833B9044B13B10448AFF3C9
:1001980000800123237010BD0C0000200000000027
:1001A800E816000808B5034B1BB103490348AFF331
:1001B800008008BD0000000010000020E8160008BC
:1001C80053B94AB9002908BF00281CBF4FF0FF31B6
:1001D8004FF0FF3000F072B9ADF1080C6DE904CEB4
:1001E80000F006F8DDF804E0DDE9022304B070470A
:1001F8002DE9F047089E04468846002B4BD18A42D9
:10020800154667D9B2FA82F24AB1C2F1200701FA5B
:1002180002F320FA07F7954047EA030894404FEAAB
:10022800154E230CB8FBFEF71FFA85FC0EFB17884A
:1002380043EA084307FB0CF1994209D9EB1807F187
:10024800FF3080F01B81994240F21881023F2B4415
:100258005B1AA4B2B3FBFEF00EFB103344EA03446E
:1002680000FB0CFCA44509D92C1900F1FF3380F0E0
:100278000781A44540F2048102382C4440EA074033
:10028800A4EB0C0400271EB1D4400023C6E90043A8
:100298003946BDE8F0878B4209D9002E00F0EB8083
:1002A8000027C6E9000138463946BDE8F087B3FAA9
:1002B80083F7002F47D18B4202D3824200F2FA80A3
:1002C800841A61EB030301209846002EE0D0C6E9AA
:1002D8000048DDE702B9FFDEB2FA82F2002A40F0F8
:1002E8008F80491B4FEA154E1FFA85F80127B1FB8D
:1002F800FEFC230C0EFB1C1143EA014308FB0CF126
:10030800994207D9EB180CF1FF3002D2994200F25A
:10031800CD808446591AA3B2B1FBFEF00EFB10142F
:1003280043EA044408FB00F8A04507D92C1900F15A
:10033800FF3302D2A04500F2B6801846A4EB0804A9
:1003480040EA0C409FE7C7F1200CBB4022FA0CFEA4
:100358004EEA030E01FA07F420FA0CF521FA0CF321
:100368004FEA1E482543B3FBF8F92C0C08FB193358
:100378001FFA8EFA44EA034309FB0AF49C4202FA84
:1003880007F200FA07F10BD91EEB030309F1FF305E
:1003980080F087809C4240F28480A9F1020973446E
:1003A8001B1BADB2B3FBF8F008FB103345EA03445E
:1003B80000FB0AFAA24508D91EEB040400F1FF333A
:1003C8006BD2A24569D90238744440EA0940A0FBBF
:1003D8000289A4EB0A044C45C2464B4654D351D07B
:1003E800002E69D0B1EB0A0564EB030404FA0CFC97
:1003F800FD40FC404CEA0505C6E90054002747E7E4
:10040800C2F1200320FA03F7954001FA02F021FA1D
:1004180003F34FEA154E3843010CB3FBFEF71FFAFE
:1004280085F80EFB173341EA034107FB08F38B42BB
:1004380004FA02F407D9691807F1FF3C2FD28B425E
:100448002DD9023F2944CB1A81B2B3FBFEF00EFB33
:10045800103341EA034100FB08F38B4207D96918BE
:1004680000F1FF3C17D28B4215D902382944C91A2A
:1004780040EA07473BE73746304609E70746E7E6DD
:100488001846FBE64145ABD2B8EB020A69EB0E020F
:1004980001381346A4E76046E9E7184695E767463A
:1004A800D1E781467CE702382C4447E7ACF1020CDF
:1004B8002B442FE7384608E73746E9E6704700BF80
:1004C80038B50E4A0E4B054618784FF47A73B3FBCD
:1004D800F0F31068B0FBF3F000F0ACFB044658B939
:1004E8000F2D09D8024629464FF0FF3000F062FB75
:1004F800044B20461D6038BD0120FCE708000020A1
:10050800000000200400002008B50B4B1A6842F4D4
:1005180000721A601A6842F480621A601A6842F41B
:1005280080721A60032000F033FB0020FFF7C8FF39
:1005380000F0BAFF002008BD003C0240034A044B0B
:1005480011681B780B441360704700BF2C00002013
:1005580000000020014B1868704700BF2C000020E5
:1005680038B5044600286ED090F820300BB900F05A
:10057800B9FF2268136823F002031360FFF7EAFF4C
:10058800054623685A68910751D41A6842F0010257
:100598001A60FFF7DFFF054623685A68D20754D56B
:1005A800227E012A1A680CBF42F0800222F08002E3
:1005B8001A60627E012A1A680CBF42F0400222F0DB
:1005C80040021A60A27E012A1A680CBF42F020027B
:1005D80022F020021A60E27E012A1A680CBF22F07B
:1005E800100242F010021A60227F012A1A680CBF1A
:1005F80042F0080222F008021A60627F012A1A6893
:100608000CBF42F0040222F004021A60D4E902216D
:100618000A4321690A4361690A43616801390A4347
:10062800DA6100200123606284F8203038BDFFF7CA
:1006380091FF401B0A28A4D9636A43F4003363621C
:10064800052384F820300120F0E7FFF783FF401BE3
:100658000A28A1D9F0E7000090F82030012B30B526
:1006680003D090F82030022B72D13C4BD3F80022F3
:1006780042F00102C3F80022D3F8002222F47C528F
:10068800C3F80022D3F80022486A42EA0022C3F8DD
:1006980000224869D3F81C5201248440E2431540E3
:1006A800C3F81C52CD69002D35D1D3F80C52154032
:1006B800C3F80C52CB688D8845EA0345C30003F1A3
:1006C800804303F5C8430888C3F840528D6840EA60
:1006D8000540C3F844028869204B88BBD3F804025C
:1006E8001040C3F80402086970BBD3F81402024032
:1006F800C3F814220B6A012B184B02BFD3F81C2233
:100708001443C3F81C42D3F8002222F00102C3F8B4
:100718000022002030BD012DDDD1D3F80C52254335
:10072800C3F80C520B688D8845EA0345C30003F1F2
:10073800804303F5C8438889C3F840528D68C6E7EB
:10074800D3F804022043CCE7D3F814222243CFE79E
:10075800436A43F4802343620120DBE700640040DE
:1007680038B590F82030012B04461FD102680223C7
:1007780080F82030136823F001031360FFF7EAFEC6
:1007880005462368586810F0010001D1606238BD41
:10079800FFF7E0FE401B0A28F3D9636A43F40033ED
:1007A8006362052384F820300120F0E7436A43F4AC
:1007B80000234362F8E7F0B590F82040012C03D0FD
:1007C80090F82040022C41D10468A5686F0105D437
:1007D800A5682E0102D4A568ED0031D5A0680125D1
:1007E800C0F3016085401D60D1E9025700F118038C
:1007F8000DBB0D6847EA45551B010001E55023185C
:100808000D69097DC3F88451012902BFD3F8841109
:1008180041F48071C3F8841104445168C4F88C1100
:100828001268C4F88821D3F8802142F00102C3F885
:1008380080210020F0BD4E683D4345EAC605DBE750
:10084800436A43F4001343620120F3E7436A43F425
:100858008023F8E7F0B590F82040012C03D090F8F9
:100868002040022C70D1066841B9F468A40709D168
:10087800436A43F4001343620120F0BD012901D10A
:100888003469F3E70C013519D5F8B07107F004079E
:100898009760002F4BD1D5F8B0717F0D1760D5F850
:1008A800B071C7F34007D760D5F8B47107F00F07E8
:1008B8001761D5F8B471D5F8B4512644C7F30727A2
:1008C8002D0C97615561D6F8B8211A700268224438
:1008D800D2F8B821120A5A7002682244D2F8B82114
:1008E800120C9A7002682244D2F8B821120EDA70FB
:1008F80002682244D2F8BC211A7102682244D2F854
:10090800BC21120A5A7102682244D2F8BC21120C86
:100918009A7102681444D4F8BC21120EDA7159B9DC
:100928000268D36843F02003D3600020A5E7D5F818
:10093800B071FF085760B2E70129F6D10268136960
:1009480043F020031361F0E7436A43F4802392E7FE
:1009580090F82030012B03D090F82030022B05D1DD
:10096800026853691943516100207047436A43F490
:100978008023436201207047704770477047704773
:1009880070477047704770477047704770477047A7
:1009980070472DE9F84F03685E69D3F804909F68A3
:1009A800D3F80CB0D3F810A0D3F8188016F00104CF
:1009B800054622D017F0010407D00122B9079A6032
:1009C80040F1A380FFF7D8FF0024FB0509D52B6869
:1009D8004FF48072B8059A6040F1A5802846FFF769
:1009E800CCFFFB0309D52B684FF48032B8039A601B
:1009F80040F1A7802846FFF7C1FF330707D51BF052
:100A0800100F1FBF2B68102244F40074DA607707B8
:100A180008D51BF0080F05D02B680822DA60284695
:100A2800FFF7B1FFB00706D52B68DB68990702D03E
:100A38002846FFF7A7FF720607D51AF0100F1FBF49
:100A48002B68102244F480641A61B30608D51AF0A2
:100A5800080F05D02B6808221A612846FFF795FF72
:100A6800F70606D52B681B69980702D02846FFF7BA
:100A78008BFFB10308D519F0100F05D02B68102291
:100A88005A602846FFF782FFF20308D519F0080FCD
:100A980005D02B6808225A602846FFF778FF3304F0
:100AA8002AD519F0040F2A6824D0F70504D518F0C0
:100AB800010F18BF44F00104B00504D518F0020F67
:100AC80018BF44F00204710504D518F0040F18BFCC
:100AD80044F0040433050DD518F070030AD0302B08
:100AE8004CD03CD8102B43D0202B44D0936923F012
:100AF80070039361042353602CB16B6A1C436C62CE
:100B08002846FFF745FFBDE8F88F7A0705D417F0A8
:100B1800080405D1FFF733FF57E74FF4006454E7A3
:100B28004FF4805451E7790502D544F4005458E74E
:100B38003A0502D544F4804453E72846FFF720FFDE
:100B48004FE7790302D544F4004456E73A0302D547
:100B580044F4803451E72846FFF713FF4DE7502B44
:100B68000FD0602B10D0402BC0D144F04004BDE71B
:100B780044F00804BAE744F01004B7E744F020044E
:100B8800B4E744F08004B1E744F48074AEE70000B1
:100B9800074AD36823F4E0631B041B0C43F0BF63CC
:100BA800000243F4003300F4E0600343D36070476D
:100BB80000ED00E0174B70B5DC68C4F30224C4F103
:100BC8000705042D04F1040328BF04254FF0FF3660
:100BD800062B06FA05F38CBF033C002421EA030325
:100BE800A34006FA04F422EA0404002843EA0403B2
:100BF800A8BF00F160404FEA0313BCBF00F00F002C
:100C0800054ADBB2AABF00F56140135480F80033EF
:100C180070BD00BF00ED00E014ED00E042090123C3
:100C280000F01F0003FA00F0014B43F82200704760
:100C380000E100E00138B0F1807F0AD2064B074A94
:100C48005860F02182F823100020072298601A606B
:100C580070470120704700BF10E000E000ED00E0A1
:100C68002DE9F04F85B00B68DFF8AC81684ADFF8F2
:100C7800AC91019300234FF0010C019C0CFA03FC8A
:100C880004EA0C06B44540F0AE804C6824F0100726
:100C9800022F16D14FEAD30A00EB8A0A03F0070B9A
:100CA800DAF820504FEA8B0B4FF00F0E0EFA0BFEBE
:100CB80025EA0E0E0D6905FA0BF545EA0E05CAF888
:100CC80020504FEA430A0325D0F800B005FA0AF588
:100CD800ED4304F0030E05EA0B0B0EFA0AFE013F82
:100CE8004EEA0B0E012FC0F800E011D8876807EA1A
:100CF800050BCF6807FA0AFE4EEA0B0787604768BC
:100D080027EA0C0CC4F300179F4047EA0C0747601A
:100D1800C7683D408F6807FA0AF73D43C560E5009C
:100D280061D54FF0000BCDF80CB0D8F84470394DB0
:100D380047F48047C8F84470D8F8447007F48047EF
:100D48000397039F23F0030707F1804707F59C37B4
:100D580003F0030ED7F808A04FEA8E0E4FF00F0CE1
:100D68000CFA0EFCA8422AEA0C0C43D005F5806563
:100D7800A84241D005F58065A8423FD005F58065B9
:100D8800A8423DD005F58065A8423BD048453BD0F8
:100D980005F50065A84239D005F58065A84214BF5D
:100DA8000825072505FA0EF545EA0C05BD60156806
:100DB800F74314F4803F0CBF3D4035431560556838
:100DC80014F4003F0CBF3D4035435560956814F45A
:100DD800801F0CBF3D4035439560D568A40254BFC1
:100DE8003D403543D5600133102B7FF444AF05B047
:100DF800BDE8F08F5D46D5E70125D3E70225D1E7A9
:100E08000325CFE70425CDE70525CBE70625C9E768
:100E1800003C01400000024000380240001402403B
:100E28000369194214BF0120002070470AB181618B
:100E380070470904FBE7704708B5044B596901423C
:100E480002D05861FFF7F7FF08BD00BF003C014022
:100E58002DE9F341044618B9012002B0BDE8F0813C
:100E68000368DD0710D42368980758D423681A0745
:100E780000F19A8023685B0700F1B880A269002A14
:100E880040F019810020E8E7A64B9A6802F00C02AE
:100E9800042A07D09A6802F00C02082A0AD15B6873
:100EA800590207D59F4B1B689A03DCD56368002B52
:100EB800D9D1D1E763689B4DB3F5803F11D12B6839
:100EC80043F480332B60FFF745FB964D06462B68AD
:100ED8009B03C8D4FFF73EFB801B6428F7D9032087
:100EE800BBE7B3F5A02F04D12B6843F480232B6014
:100EF800E5E72A6822F480322A602A6822F48022F0
:100F08002A60002BDFD1FFF725FB06462B689F03DD
:100F1800A9D5FFF71FFB801B6428F7D9DFE7814BB2
:100F28009A6812F00C0F07D09A6802F00C02082A8F
:100F380011D15B685E020ED47A4B1A68950702D508
:100F4800E268012A88D11A68216922F0F80242EA87
:100F5800C1021A608AE7E268734BB2B101221A60D3
:100F6800FFF7F8FA6F4D06462B68980707D52B68E8
:100F7800226923F0F80343EAC2032B6076E7FFF700
:100F8800E9FA801B0228EFD9A9E71A60FFF7E2FA0D
:100F9800644D06462B6899077FF568AFFFF7DAFAC4
:100FA800801B0228F6D99AE76269604B7AB1012260
:100FB8001A60FFF7CFFA5B4D06466B6F9F073FF548
:100FC80059AFFFF7C7FA801B0228F6D987E71A60DE
:100FD800FFF7C0FA534D06466B6F98077FF54AAF87
:100FE800FFF7B8FA801B0228F6D978E74D4B1A6C40
:100FF80012F0805228D101921A6C42F080521A6481
:101008001B6C03F080530193019B0126484D2B680C
:10101800D9051BD5A368434D012B27D12B6F43F06E
:1010280001032B67FFF796FA3E4D074641F28838D1
:101038002B6F9B0739D5002E3FF420AF394A136C2C
:1010480023F08053136419E70026DFE72B6843F485
:1010580080732B60FFF77EFA07462B68DA05D9D430
:10106800FFF778FAC01B0228F7D938E7052B04D117
:101078002B6F43F004032B67D0E72A6F22F001029D
:101088002A672A6F22F004022A67002BCAD1FFF7C9
:1010980061FA41F2883807462B6F9807CBD5FFF7DE
:1010A80059FAC01B4045F7D919E7FFF753FAC01B97
:1010B8004045BDD913E71B4DAB6803F00C03082B63
:1010C8003FF4CAAE1B4E0023022A336034D1FFF727
:1010D80041FA07462B6899011ED4D4E90732134315
:1010E800626A43EA8213E26A43EA0263A26A0D4C27
:1010F8005208013A43EA02436B6001233360FFF769
:1011080029FA054623689A013FF5BCAEFFF722FA93
:10111800401B0228F6D9E2E6FFF71CFAC01B02289A
:10112800D8D9DCE60038024000004742800E47422A
:101138000070004060004742FFF70CFA04462B6835
:101148009B017FF59FAEFFF705FA001B0228F6D931
:10115800C5E600BF134908B58B6803F00C03042BE0
:1011680003D0082B03D0104800E0104808BD4A6897
:101178004B68496813F4800314BF0C480A48C1F34C
:10118800881118BF002302F03F02A1FB0001FFF7FE
:1011980017F8044B5B68C3F3014301335B00B0FBF2
:1011A800F3F0E3E7003802400024F40000127A006C
:1011B8002DE9F0410D46044610B90120BDE8F08143
:1011C800434B1A6802F00F028A4227D321688F071F
:1011D8002CD4C8073FD43E4B1A6802F00F02AA422B
:1011E80064D8226851076AD4130707D5394A216998
:1011F800936823F4604343EAC1039360FFF7AAFFAF
:10120800344B354A9B68C3F30313D35CD840334B44
:1012180018600020FFF754F90020CFE7CAB21A700F
:101228001B6803F00F038B42C7D1CFE7294B11F09E
:10123800040F1EBF9A6842F4E0529A600E0742BF3C
:101248009A6842F460429A609A68A06822F0F002B4
:1012580002439A60BDE762681E4B012A1CD11B68D5
:1012680013F4003FA9D01B4EB36823F003031343C4
:10127800B360FFF76FF941F288380746B3686268D0
:1012880003F00C03B3EB820FA5D0FFF763F9C01B83
:101298004045F3D9032091E7911E01291B6802D824
:1012A80013F0007FDEE713F0020FDBE7EAB21A70F3
:1012B8001B6803F00F03AB427FF47FAF91E705494A
:1012C800E0688B6823F4E05303438B608CE700BF2E
:1012D800003C0240003802400017000808000020C7
:1012E80030B595B0102200210AA800F0F1F90021CC
:1012F800142203A800F0ECF900241C4B01941A6C8A
:1013080042F080521A641B6C03F080530193019BD6
:10131800174B02941A6842F480421A601B6803F45F
:1013280080430293029B01224FF48033CDE90823C6
:1013380002254FF48003A822CDE90E5308A8042300
:10134800CDE91032CDE91253FFF782FD0F23CDE925
:1013580003354FF4A0514FF48053CDE9061303A889
:1013680005210594FFF724FF15B030BD0038024071
:101378000070004080B58AB0FFF7C6F8FFF7B0FFED
:10138800142200210DEB020000F0A2F900243E4BCC
:1013980001941A6B3D483E4D42F080021A631A6B65
:1013A80002F080020192019A02941A6B42F0010243
:1013B8001A631A6B02F001020292029A03941A6BE2
:1013C80042F008021A631A6B02F008020392039AA9
:1013D80004941A6B42F002021A631B6B03F00203B7
:1013E800224604934FF47041049BFFF71FFD294BDD
:1013F80029480126022705A9CDE905630797FFF7C4
:101408002FFC4FF4704305A92048CDE90536CDE9F6
:101418000744FFF725FC224621460620FFF7CAFBB2
:101428000620FFF7FBFB1D4A2C761523C5E9002390
:101438004FF410214FF480032846C5E90413C5E989
:1014480002446C76AC76EC762C776C77FFF788F8EC
:101458002846FFF785F939462846FFF779FA1049F3
:10146800104B0E624FF4B07228461E61C3E9024465
:101478001A60C1E90444C1E90044C1E90244C1E970
:101488000646FFF7E9F8FEE700380240000C024084
:10149800900000200000111000000240006400408D
:1014A800300000205C00002082B00D4B002100912C
:1014B8005A6C42F480425A645A6C02F48042009298
:1014C800009A01911A6C42F080521A641B6C03F066
:1014D80080530193019B072002B0FFF759BB00BF5F
:1014E8000038024010B5044688B01422002103A831
:1014F80000F0EEF82268184B9A422BD103F5EA3334
:10150800002401941A6C154842F000721A641A6C8F
:1015180002F000720192019A02941A6B42F00202E0
:101528001A631B6B03F0020302934FF44072029B91
:101538000223CDE9032303210923CDE9061303A9D7
:10154800FFF78EFB142001222146FFF733FB1420FE
:10155800FFF764FB08B010BD0064004000040240BF
:101568007047FEE7FEE7FEE7FEE770477047704703
:10157800FEF7E4BF10B50120FFF75EFC0121084823
:10158800FFF74EFC50B1074A074913780748013363
:101598001370BDE81040064BFFF70DB910BD00BF32
:1015A80000000240280000205C000020900000207D
:1015B8005800002038B5084D084C2846FFF7E9F9CF
:1015C8002346074A00212846FFF744F92378054AAD
:1015D8001B03536138BD00BF900000202900002084
:1015E80074000020000C02400F49D1F8883043F401
:1015F8007003C1F888300D4B1A68002042F00102D0
:101608001A6098601A6822F0847222F480321A6094
:10161800074A5A601A6822F480221A60D8604FF08C
:1016280000638B60704700BF00ED00E000380240A7
:1016380010300024DFF834D0002103E00C4B5B5855
:10164800435004310B480C4B42189A42F6D30B4ACC
:1016580002E0002342F8043B094B9A42F9D3FFF712
:10166800C3FF00F011F8FFF785FE70470000022065
:1016780020170008000000200C0000200C000020AB
:10168800B8000020FEE7000070B50D4E0D4CA41BFD
:10169800A4100025A54209D10B4E0C4C00F020F8EF
:1016A800A41BA4100025A54205D170BD56F825300D
:1016B80098470135EEE756F8253098470135F2E7A7
:1016C8001817000818170008181700081C17000832
:1016D80002440346934200D1704703F8011BF9E71F
:1016E800F8B500BFF8BC08BC9E467047F8B500BF07
:0816F800F8BC08BC9E467047D7
:1017000000000000000000000102030406070809B1
:08171000E8EAFF7F0100000080
:04171800AD01000817
:04171C008901000837
:0C17200001000000100000000024F40094
:040000050800163D9C
:00000001FF
