:020000040800F2
:1000000000000220511D0008D91C0008DB1C00085C
:10001000DD1C0008DF1C0008E11C000800000000D7
:10002000000000000000000000000000E31C0008C9
:10003000E51C000800000000E71C0008E91C00089F
:10004000A11D0008A11D0008A11D0008A11D000898
:10005000A11D0008A11D0008A11D0008A11D000888
:10006000A11D0008A11D0008A11D0008A11D000878
:10007000A11D0008A11D0008A11D0008A11D000868
:10008000A11D0008A11D0008A11D0008A11D000858
:10009000ED1C0008A11D0008A11D0008A11D0008FD
:1000A000A11D0008A11D0008A11D0008A11D000838
:1000B000A11D0008A11D0008A11D0008A11D000828
:1000C000A11D0008A11D0008A11D0008A11D000818
:1000D000A11D0008A11D0008A11D0008A11D000808
:1000E000A11D0008A11D0008A11D0008A11D0008F8
:1000F000A11D0008A11D0008A11D0008A11D0008E8
:10010000A11D0008A11D0008A11D0008A11D0008D7
:10011000A11D0008A11D0008A11D0008A11D0008C7
:10012000F91C0008A11D0008A11D0008A11D000860
:10013000A11D0008A11D0008A11D0008A11D0008A7
:10014000A11D0008A11D0008A11D0008A11D000897
:10015000A11D0008A11D0008A11D0008A11D000887
:10016000A11D0008A11D0008A11D0008A11D000877
:10017000A11D0008A11D0008A11D0008000000002D
:08018000A11D0008A11D0008EB
:1001880010B5054C237833B9044B13B10448AFF3C9
:1001980000800123237010BD0C0000200000000027
:1001A800FC1D000808B5034B1BB103490348AFF316
:1001B800008008BD0000000010000020FC1D0008A1
:1001C80053B94AB9002908BF00281CBF4FF0FF31B6
:1001D8004FF0FF3000F06EB9ADF1080C6DE904CEB8
:1001E80000F006F8DDF804E0DDE9022304B070470A
:1001F8002DE9F047089D04468C46002B40F083808B
:100208008A42174647D9B2FA82F242B1C2F12000B7
:1002180024FA00F09140974040EA010C94404FEADC
:100228001748230CBCFBF8F61FFA87FE08FB16C11B
:1002380043EA014306FB0EF1994209D9FB1806F17E
:10024800FF3080F01981994240F21681023E3B440A
:100258005B1AA4B2B3FBF8F008FB103344EA03447A
:1002680000FB0EFEA64509D93C1900F1FF3380F0CA
:100278000581A64540F2028102383C4440EA064026
:10028800A4EB0E0400261DB1D4400023C5E90043A9
:100298003146BDE8F08702B9FFDEB2FA82F2002AE1
:1002A80050D1CB1B4FEA174E1FFA87F80126B3FB34
:1002B800FEFC210C0EFB1C3341EA034108FB0CF346
:1002C8008B4207D979180CF1FF3002D28B4200F229
:1002D800E9808446C91AA3B2B1FBFEF00EFB1011E7
:1002E80043EA014408FB00F8A04507D93C1900F18E
:1002F800FF3302D2A04500F2D9801846A4EB0804C7
:1003080040EA0C40BFE78B4209D9002D00F0B180CC
:100318000026C5E9000130463146BDE8F087B3FA4A
:1003280083F6002E4AD18B4202D3824200F2B88073
:10033800841A61EB030101208C46002DA8D0C5E981
:10034800004CA5E7C2F1200320FA03F6974001FA12
:1003580002F04FEA174ED9403043030CB1FBFEF6CA
:100368001FFA87F80EFB161143EA014306FB08F152
:10037800994204FA02F409D9FB1806F1FF3C80F00F
:100388008D80994240F28A80023E3B445B1A81B2DA
:10039800B3FBFEF00EFB103341EA034100FB08F308
:1003A8008B4207D9791800F1FF3C73D28B4271D97F
:1003B80002383944CB1A40EA064678E7C6F1200CE1
:1003C80003FA06F422FA0CF31C4320FA0CF701FA9C
:1003D80006F34FEA144E21FA0CF11F433B0CB1FB14
:1003E800FEF91FFA84F80EFB191143EA014109FBD3
:1003F80008FA8A4502FA06F200FA06F308D96118E3
:1004080009F1FF3048D28A4546D9A9F102092144A9
:10041800A1EB0A01BFB2B1FBFEF00EFB101147EAD7
:10042800014700FB08F8B84507D9E71900F1FF3183
:100438002ED2B8452CD90238274440EA0940A7EB08
:100448000807A0FB02894F45C64649461AD317D06C
:100458005DB1B3EB0E0267EB010707FA0CFCF24043
:100468004CEA0202F740C5E9002700263146BDE8FC
:10047800F0872E4628460BE70646E9E61846FDE6CD
:100488004345E5D2B8EB020E69EB04010138DFE71A
:100498000846D2E760468DE78146B9E7664675E7C4
:1004A80030464AE7ACF1020C394413E702383C44C1
:1004B80024E700BF704700BF38B50E4A0E4B05460B
:1004C80018784FF47A73B3FBF0F31068B0FBF3F0CD
:1004D80000F062FD044658B90F2D09D80246294696
:1004E8004FF0FF3000F018FD044B20461D6038BD6A
:1004F8000120FCE708000020000000200400002084
:1005080008B50B4B1A6842F400721A601A6842F474
:1005180080621A601A6842F480721A60032000F040
:10052800E9FC0020FFF7C8FF01F026FB002008BD0A
:10053800003C0240034A044B11681B780B441360CB
:10054800704700BF2800002000000020014B1868F9
:10055800704700BF2800002038B50446FFF7F6FFB3
:10056800631C1CBF054B1B78054618BFE418FFF732
:10057800EDFF431BA342FAD338BD00BF00000020A3
:1005880038B50446002800F09B80056C25B901F0B9
:1005980011FB656484F83C50236CDB0600F18E8007
:1005A800236C23F4885323F0020343F002032364EB
:1005B800444B5A6822F440325A605A6861680A43C8
:1005C8005A60236821695A6822F480725A605A680E
:1005D80042EA01225A605A68A16822F040725A60C1
:1005E8005A680A435A609A68E16822F400629A607D
:1005F8009A680A439A603449A26A8A4252D0996832
:1006080021F07061996099680A439A609A68E16A72
:1006180022F040529A609A680A439A609A6822F0D7
:1006280002029A609A68217E42EA41029A6094F82E
:100638002020002A3ED05A68616A42F400625A605B
:100648005A6822F460425A605A68013942EA4132D3
:100658005A60DA6AE16922F47002DA62DA6A013908
:1006680042EA0152DA629A6822F400729A609A6841
:1006780094F8301042EA41229A609A68616922F43B
:1006880080629A609A68002042EA81229A606064D7
:10069800236C23F0030343F001032364002384F84D
:1006A8003C3038BD9A6822F070629A609A6822F0ED
:1006B8004052B2E75A6822F40062C9E70120EDE728
:1006C8000120EEE7002301400100000F73B5134637
:1006D8000022019290F83C20012A054600F08C8007
:1006E8000122066880F83C20B268D40754D5B26865
:1006F800D00564D4B46814F0010474D0286C20F4D4
:10070800E06020F0010040F48070286472685205AF
:1007180041BF286C20F4405040F4805028642A6C73
:10072800A86B12F480521CBF6A6C22F006026A643D
:100738000024334A85F83C40C263324A0264324A94
:10074800C2646FF022023260726842F080627260A6
:10075800B26842F48072B2600A4606F14C0100F0B9
:10076800C7FC2A4A2B685068294910F01F0032D16B
:100778008B4207D001F580718B4225D1526812F067
:100788001F0F07D1986810F0405037D19A6842F08F
:1007980080429A6002B070BDB26842F00102B26055
:1007A8001C4A10681C4AB0FBF2F000EB40000190B4
:1007B800019A002A9BD0019A013A0192F8E7B2689F
:1007C80022F48072B26095E714498B42E2D15268F4
:1007D80012F0100FD5E78B4210D1986810F04050F6
:1007E800D4D02046D6E72B6C43F010032B646B6CF7
:1007F80043F001036B64F4E70220CBE70020C9E76C
:100808004F0800082D080008390800080023014097
:10081800002001400800002040420F000022014053
:100828007047704708B5806BFFF7FBFF08BD70473E
:10083800806B08B540230364436C43F004034364AE
:10084800FFF7F5FF08BD836B1A6C12F0500F10B557
:100858001A6C23D142F400721A641A68916811F074
:10086800405F17D1197EA9B9D16A11F4700F02D06F
:10087800916848050ED4516821F0200151601A6C26
:1008880022F480721A641A6CD1045EBF1A6C42F0AA
:1008980001021A641846FFF7C3FF10BDD20603D53C
:1008A8001846FFF7C4FFF8E79B6BBDE81040DB6C08
:1008B80018470000F7B50023019390F83C30012B4E
:1008C80066D0012380F83C300D6803688E68092DD6
:1008D800ACB231D904EB4402DF681E3A4FF0070C82
:1008E8000CFA02FC27EA0C07DF60DF6806FA02F25E
:1008F8003A43DA604968062901EB81022CD8596B22
:10090800053A1F26964021EA06015963596B04FAF5
:1009180002F20A435A632C4A934207D1122D39D165
:10092800D2F8043343F48003C2F80433002380F878
:100938003C30184603B0F0BD1F6905EB45024FF087
:10094800070C0CFA02FC27EA0C071F611F6906FA5C
:1009580002F23A431A61CDE70C294FF01F010BD878
:100968001E6B233A914026EA01011963196B04FAB8
:1009780002F20A431A63CEE7DE6A413A914026EA58
:100988000101D962D96A04FA02F20A43DA62C2E7BB
:100998000220CFE7A5F11003012BC7D80B4A5368F3
:1009A800102D43F400035360C0D1094B094A1B685A
:1009B800B3FBF2F20A2353430193019B002BB5D0FA
:1009C800019B013BF8E700BF0020014000230140E4
:1009D8000800002040420F0038B5044600286ED0B9
:1009E80090F820300BB901F033F92268136823F02E
:1009F80002031360FFF7AAFD054623685A689107AA
:100A080051D41A6842F001021A60FFF79FFD0546AB
:100A180023685A68D20754D5227E012A1A680CBF67
:100A280042F0800222F080021A60627E012A1A686F
:100A38000CBF42F0400222F040021A60A27E012A56
:100A48001A680CBF42F0200222F020021A60E27EEF
:100A5800012A1A680CBF22F0100242F010021A6034
:100A6800227F012A1A680CBF42F0080222F008020D
:100A78001A60627F012A1A680CBF42F0040222F051
:100A880004021A60D4E902210A4321690A43616910
:100A98000A43616801390A43DA6100200123606270
:100AA80084F8203038BDFFF751FD401B0A28A4D92F
:100AB800636A43F400336362052384F8203001201D
:100AC800F0E7FFF743FD401B0A28A1D9F0E7000033
:100AD80030B590F82030013B012B78D83F4BD3F844
:100AE800002242F00102C3F80022D3F8002222F4C7
:100AF8007C52C3F80022D3F80022486A42EA002256
:100B0800C3F800224A69D3F81C52012402F01F00DE
:100B180004FA00F025EA0005C3F81C52CD69C44365
:100B2800002D35D1D3F80C522540C3F80C52CB68B0
:100B38008D8845EA0345D30003F1804303F5C84394
:100B48000A88C3F840528D6842EA0542C3F8442235
:100B58008A69224B8ABBD3F804222240C3F80422B4
:100B68000A6972BBD3F814221440C3F814420B6A02
:100B7800012B1A4B02BFD3F81C221043C3F81C02E6
:100B8800D3F8002222F00102C3F80022002030BD71
:100B9800012DDDD1D3F80C520543C3F80C520B6874
:100BA8008D8845EA0345D30003F1804303F5C84324
:100BB8008A89C3F840528D68C6E7D3F804220243F5
:100BC800CCE7D3F814220243C3F81422CFE7436AD0
:100BD80043F4802343620120D9E700BF006400404A
:100BE80070B590F82030012B0446DDB220D10268A0
:100BF800022380F82030136823F001031360FFF705
:100C0800A5FC064623685B6813F0010302D1636202
:100C18001D460BE0FFF79AFC801B0A28F2D9636A8D
:100C280043F400336362052384F82030284670BDFE
:100C3800436A43F4002343620125F7E7F0B590F8CF
:100C480020500668013D012DB46843D814F0E05FD8
:100C58003CD0C4F30164032C4FF0010505D1436A6D
:100C680043F40003436201202AE0A5401D60D1E956
:100C7800020704F1180320BB086847EA40501B012B
:100C8800F05006EB04130D69C3F88451097D01295E
:100C980008BFD3F884114FEA041004BF41F48071EF
:100CA800C3F8841106445168C6F88C111268C6F856
:100CB8008821D3F8802142F00102C3F88021002066
:100CC800F0BD4D68384340EAC500D8E7436A43F4AD
:100CD8000013C7E7436A43F48023C3E770477047AC
:100CE8007047704770477047704770477047704744
:100CF8007047704770472DE9F84F03685E69D3F86D
:100D080004909F68D3F80CB0D3F810A0D3F81880DB
:100D180016F00104054622D017F0010407D001227D
:100D2800B9079A6040F1A580FFF7D8FF0024FB05BA
:100D380009D52B684FF48072B8059A6040F1A780F6
:100D48002846FFF7CCFFFB0309D52B684FF4803208
:100D5800B8039A6040F1A9802846FFF7C1FF33071E
:100D680007D51BF0100F1FBF2B68102244F4007426
:100D7800DA60770708D51BF0080F05D02B68082222
:100D8800DA602846FFF7B1FFB00706D52B68DB68A5
:100D9800990702D02846FFF7A7FF720607D51AF071
:100DA800100F1FBF2B68102244F480641A61B30629
:100DB80008D51AF0080F05D02B6808221A612846B2
:100DC800FFF795FFF70606D52B681B69980702D031
:100DD8002846FFF78BFFB10308D519F0100F05D08F
:100DE8002B6810225A602846FFF782FFF20308D5C5
:100DF80019F0080F05D02B6808225A602846FFF71B
:100E080078FF33042CD519F0040F2A6826D0F7058B
:100E180004D518F0010F18BF44F00104B00504D53B
:100E280018F0020F18BF44F00204710504D518F039
:100E3800040F18BF44F0040433050FD518F07003ED
:100E48000CD0402B4FD03ED8202B46D0302B47D04B
:100E5800102B3FD0936923F07003936104235360F0
:100E68002CB16B6A1C436C622846FFF743FFBDE850
:100E7800F88F7A0705D417F0080405D1FFF731FF7A
:100E880055E74FF4006452E74FF480544FE7790573
:100E980002D544F4005456E73A0502D544F4804498
:100EA80051E72846FFF71EFF4DE7790302D544F4C2
:100EB800004454E73A0302D544F480344FE7284607
:100EC800FFF711FF4BE7502B10D0602BC2D144F431
:100ED8008074BFE744F00804BCE744F01004B9E7A5
:100EE80044F02004B6E744F04004B3E744F080043B
:100EF800B0E700000749CA6822F4E062030212045E
:100F080003F4E063120C134343F0BF6343F400336C
:100F1800CB60704700ED00E0164B30B5DC68C4F3D9
:100F28000224C4F10705231D042D28BF0425062B20
:100F38004FF0FF338CBF033C002403FA05F521EA88
:100F48000501A34022EA0302A140002841EA020366
:100F5800ACBF00F16040084A4FEA0313B8BF00F085
:100F68000F00DBB2AABF00F56140135480F80033CC
:100F780030BD00BF00ED00E014ED00E0002808DB04
:100F88004209012300F01F0003FA00F0014B43F867
:100F98002200704700E100E00138B0F1807F0AD2FA
:100FA800064B074A5860F02182F8231000200722D8
:100FB80098601A6070470120704700BF10E000E099
:100FC80000ED00E0036810B5084C0246D9B21039AC
:100FD8001820B1FBF0F0205CD06523F47F7020F07E
:100FE80003005F2988BF0430906510BD141E0008F7
:100FF80070B50446FFF7AAFA0546002C73D0002303
:1010080084F834302268022384F83530136823F0DA
:101018000103136021680B68D8072FD40B68334D80
:10102800A0691D40D4E901231343E26813432269F0
:10103800134362691343E26903431343226A134368
:10104800626A042A43EA050302BFD4E90B56354312
:101058002B430B604B69042A23F0070343EA02037E
:1010680033D1A26AE56A13437DB390B9012A21D02E
:1010780032F0020229D1EA0127D51EE0FFF766FA0D
:10108800401B0528C6D920236365032084F8350052
:1010980070BDB0F5005F14D1032A16D801A050F82E
:1010A80022F000BFC31000087F100008C31000081A
:1010B800BD100008B5F1C07F07D14023636501204A
:1010C800E4E7022AF9D9032AD5D04B612046FFF775
:1010D80079FFE26D3F239340836000200123606520
:1010E80084F83530D4E70120D2E700BF3F8010F004
:1010F80070B590F83440866D012C31D0012480F809
:10110800344090F83540012C4FF000054FF00204B0
:1011180024D180F8354004684565256825F4802584
:10112800256063608368402B0EBFA260A160E26007
:10113800C26D08BFE1603F239340B360236843F06A
:1011480016032360036C1BB1236843F00803236074
:10115800236843F001032360002070BD80F83450F9
:101168000220FAE7F7B5002301935C4B856D1F68F1
:10117800C36D2E6808229A40324204460CD001689A
:101188000868400708D5086820F004000860AA60CD
:10119800626D42F00102626501229A40324208D033
:1011A80021684969090641BFAA60626D42F00202DE
:1011B800626504229A40324208D02168096888078B
:1011C80041BFAA60626D42F00402626510229A4033
:1011D800324210D02368196809070CD5AA601A682A
:1011E800500337D51B68190301D4236C00E0A36CA6
:1011F8000BB120469847E16D20228A4032423AD00E
:1012080023681868C60636D5AA6094F83520052ADA
:101218001A6827D122F016021A605A6922F0800251
:101228005A61226C0AB9A26C1AB11A6822F0080233
:101238001A603F238B40AB60002384F834300123CD
:1012480084F83530236D002B45D0204603B0BDE827
:10125800F04018471A68D2055EBF1A6822F00802E3
:101268001A60C2E7500327D51B68190331D4636C91
:101278000BB120469847636D6BB3636DDA0719D5D8
:1012880022684FF41653B7FBF3F7052384F835307B
:10129800136823F001031360019B0133BB420193E0
:1012A80002D81368DB07F7D4002384F8343001230D
:1012B80084F83530E36CC6E71A6812F4807208D1F6
:1012C800196821F010011960012384F8342084F88A
:1012D8003530E36BCCE703B0F0BD00BF0800002059
:1012E8002DE9F74FDFF8A891674A00230D6801241C
:1012F8009C4004EA050CAC4340F0B0804D6805F012
:1013080003044FEA43080326671E06FA08F6012F6E
:101318006FEA060634D8876807EA060ECF6807FA28
:1013280008F747EA0E078760476827EA0C0EC5F3F7
:1013380000179F4047EA0E074760C76807EA060E8E
:101348008F6807FA08F747EA0E07022CC76019D119
:101358004FEAD30A00EB8A0A03F0070BDAF8207089
:101368004FEA8B0B4FF00F0E0EFA0BFE27EA0E0E0C
:101378000F6907FA0BF747EA0E07CAF8207001E071
:10138800032CDAD1076804FA08F43E402643EC003F
:10139800066063D54FF0000ACDF804A0D9F8446080
:1013A8003A4C46F48046C9F84460D9F8446006F4DB
:1013B80080460196019E23F0030606F1804606F555
:1013C8009C3603F0030ED6F808804FEA8E0E0F27DE
:1013D80007FA0EF7A04228EA070746D004F580640A
:1013E800A04244D004F58064A04242D004F5806451
:1013F800A04240D004F58064A0423ED004F5806449
:10140800A0423CD004F58064A0423AD004F5806440
:10141800A0420CBF0724082404FA0EF43C43B4602D
:1014280014686FEA0C06EF0354BF34404CEA040416
:1014380014605468AF0354BF34404CEA0404546049
:101448009468EF0254BF34404CEA04049460D468B2
:10145800AD0254BF34404CEA0404D4600133102B6D
:101468007FF444AF03B0BDE8F08F5446D4E70124BD
:10147800D2E70224D0E70324CEE70424CCE70524EE
:10148800CAE70624C8E700BF003C0140000002404C
:10149800003802402DE9F341044640B30368DD07F4
:1014A80010D4236898075ED423681A0700F1A08037
:1014B80023685B0700F1BE80A069002840F01F8107
:1014C80000202BE0A64B9A6802F00C02042A07D0F1
:1014D8009A6802F00C02082A0BD15A68510208D502
:1014E8009F4B1B689A03DCD56368002BD9D1012078
:1014F80014E06268B2F5803F13D11A6842F4803272
:101508001A60FFF723F8964E054633689B03C8D444
:10151800FFF71CF8401B6428F7D9032002B0BDE888
:10152800F0818F4DB2F5A02F2B6807D143F48023AB
:101538002B602B6843F480332B60E2E723F480337D
:101548002B602B6823F480232B60002AD9D1FEF767
:10155800FDFF06462B689F03A3D5FEF7F7FF801B08
:101568006428F7D9D9E77E4B9A6812F00C0F07D098
:101578009A6802F00C02082A11D15B685E020ED448
:10158800774B1A68950702D5E268012AAFD11A6825
:10159800216922F0F80242EAC1021A6084E7E2688F
:1015A800704BB2B101221A60FEF7D0FF6C4D0646AF
:1015B8002B68980707D52B68226923F0F80343EABC
:1015C800C2032B6070E7FEF7C1FF801B0228EFD92A
:1015D800A3E71A60FEF7BAFF614E0546336899071C
:1015E8007FF562AFFEF7B2FF401B0228F6D994E7F9
:1015F80062695D4B7AB101221A60FEF7A7FF584E67
:101608000546736F9F073FF553AFFEF79FFF401BDB
:101618000228F6D981E71A60FEF798FF504E054672
:10162800736F98077FF544AFFEF790FF401B0228C1
:10163800F6D972E74A4B1A6C12F0805228D10192FF
:101648001A6C42F080521A641B6C03F080530193A9
:10165800019B0127454D2B68D9051BD5A368404D33
:10166800012B27D12B6F43F001032B67FEF76EFF89
:101678003B4E054641F28838336F9B0739D5002F1A
:101688003FF41AAF364A136C23F08053136413E700
:101698000027DFE72B6843F480732B60FEF756FFC3
:1016A80006462B68DA05D9D4FEF750FF801B0228BE
:1016B800F7D932E7052B04D12B6F43F004032B67CE
:1016C800D0E72A6F22F001022A672A6F22F004026B
:1016D8002A67002BCAD1FEF739FF41F2883806463F
:1016E8002B6F9807CBD5FEF731FF801B4045F7D904
:1016F80013E7FEF72BFF401B4045BDD90DE7184DFA
:10170800AB6803F00C03082B47D0194E00230228BE
:10171800336035D1FEF71AFF07462B68990129D4A3
:10172800D4E907321343626A43EA8213E26A43EA5E
:101738000263A26A5208013A43EA02436B6001233A
:101748003360FEF703FF064D04462B689A013FF508
:10175800B7AEFEF7FBFE001B0228F6D9DDE600BF98
:101768000038024000004742800E474200700040A7
:1017780060004742FEF7EAFEC01B0228CDD9CCE63E
:10178800FEF7E4FE04462B689B017FF599AEFEF751
:10179800DDFE001B0228F6D9BFE601283FF4BEAEE5
:1017A8006B68E26903F4800191427FF4A0AE216A7C
:1017B80003F03F028A427FF49AAE616A47F6C0722C
:1017C8001A40B2EB811F7FF492AEA26A520803F46A
:1017D8004031013AB1EB024F7FF489AEE26A03F07F
:1017E8007063B3EB026F3FF46BAE80E6134908B544
:1017F8008B6803F00C03042B1CD0082B1CD14A68FF
:101808004B68496813F4800314BF0D480D48C1F3B1
:10181800881118BF002302F03F02A1FB0001FEF768
:10182800CFFC064B5B68C3F3014301335B00B0FB9D
:10183800F3F008BD0248FCE70248FAE70038024026
:1018480000127A000024F4002DE9F0410D46044608
:1018580010B90120BDE8F081444B1A6802F0070274
:101868008A4228D3226897072DD4D00741D43F4B0A
:101878001A6802F00702AA4266D8226851076CD497
:10188800130707D53A4A2169936823F4604343EA6A
:10189800C1039360FFF7AAFF354B364A9B68C3F331
:1018A8000313D35CD840344B1860344B1868FEF7E8
:1018B80003FE0020CEE7CAB21A701B6803F00703C4
:1018C8008B42C6D1CEE72A4B12F0040F1EBF99688F
:1018D80041F4E0519960160742BF996841F46041AC
:1018E80099602349A0688B6823F0F00303438B6059
:1018F800BBE762681E4B012A1CD11B6813F4003F2A
:10190800A7D01B4EB36823F003031343B360FEF75D
:101918001DFE41F288380746B368626803F00C037D
:10192800B3EB820FA3D0FEF711FEC01B4045F3D9DD
:1019380003208FE7911E01291B6802D813F0007F4E
:10194800DEE713F0020FDBE7EAB21A701B6803F058
:101958000703AB427FF47DAF8FE70549E0688B68EA
:1019680023F4E05303438B608AE700BF003C024046
:10197800003802401C1E0008080000200400002057
:1019880030B595B0102200210AA800F02BFA0021EA
:10199800142203A800F026FA00241C4B01941A6CA8
:1019A80042F080521A641B6C03F080530193019B30
:1019B800174B02941A6842F480421A601B6803F4B9
:1019C80080430293029B01224FF48033CDE9082320
:1019D80002254FF48003A822CDE90E5308A804235A
:1019E800CDE91032CDE91253FFF754FD0F23CDE9AD
:1019F80003354FF4A0514FF48053CDE9061303A8E3
:101A080005210594FFF720FF15B030BD00380240CE
:101A18000070004080B588B00024FEF771FDFFF724
:101A2800AFFF4A4B01941A6B494E4A4DDFF840818B
:101A380042F080021A631A6B02F080020192019A46
:101A480002941A6B42F001021A631A6B02F0010247
:101A58000292029A03941A6B42F002021A631A6BFA
:101A680002F002020392039A00941A6B42F4800275
:101A78001A631B6B03F48003224621460093382027
:101A8800009BFFF749FA3820FFF778FA324AB46129
:101A98001523C6E900234FF430214FF44013304694
:101AA800C6E90413C6E90244B483FEF795FF102281
:101AB8000DEB0200214600F095F928482C614FF4FF
:101AC8008033C5E900034FF000730127AB60284657
:101AD800234B85F82040EC62AB62EC602F76EF6117
:101AE80085F830706F61FEF74BFD062304A9284680
:101AF800CDE904470693FEF7DDFE1A49C8F81070D1
:101B08004FF489733046C1E90444C1E90044C1E98E
:101B18000244C1E90644C8F800300F62C8E902442B
:101B2800FEF7D6FF3046FFF75BF828460E490F4D03
:101B38000D4C3A46FEF7CAFD2B462246414604485C
:101B4800FFF77CF83220FEF707FDF5E70038024082
:101B58001C010020740000200064004000200140A7
:101B68000100000F2C00002070000020540000200D
:101B7800580000207047000082B00D4B00210091F2
:101B88005A6C42F480425A645A6C02F480420092C1
:101B9800009A01911A6C42F080521A641B6C03F08F
:101BA80080530193019B072002B0FFF7A3B900BF40
:101BB8000038024070B5064688B01422002103A8F8
:101BC80000F010F932681E4B9A4237D1002503F510
:101BD8008C3301955A6C1B481B4C42F480725A6432
:101BE8005A6C02F480720192019A02951A6B42F0C3
:101BF80001021A631B6B059503F001030293029B14
:101C08000122032303A9CDE90323FFF769FB0F4B47
:101C1800A561C4E900354FF48063C4E90435204662
:101C28004FF48073C4E90255C4E907356562FFF7CC
:101C3800DFF908B1FFF79EFFB463A66308B070BD73
:101C48000020014000000240BC0000201064024057
:101C580010B5044688B01422002103A800F0C2F889
:101C68002268194B9A422CD103F5EA3300240194D7
:101C78001A6C164842F000721A641A6C02F000726C
:101C88000192019A02941A6B42F002021A631B6BCA
:101C9800059403F0020302934FF44072029B02235F
:101CA800CDE9032303210923CDE9061303A9FFF78F
:101CB80017FB142001222146FFF72EF91420FFF705
:101CC8005DF908B010BD00BF006400400004024088
:101CD8007047FEE7FEE7FEE7FEE77047704770478C
:101CE800FEF728BC0148FFF706B800BF1C0100201A
:101CF8000148FFF737BA00BFBC0000200F49D1F8F0
:101D0800883043F47003C1F888300D4B1A680020FE
:101D180042F001021A6098601A6822F0847222F474
:101D280080321A60074A5A601A6822F480221A60C0
:101D3800D8604FF000638B60704700BF00ED00E093
:101D48000038024010300024DFF834D0002103E0CE
:101D58000C4B5B58435004310B480C4B42189A42C9
:101D6800F6D30B4A02E0002342F8043B094B9A429F
:101D7800F9D3FFF7C3FF00F011F8FFF74BFE7047E8
:101D8800000002203C1E0008000000200C0000207B
:101D98000C00002044010020FEE7000070B50D4D46
:101DA8000D4C641BA4100026A64209D10B4D0C4C07
:101DB80000F020F8641BA4100026A64205D170BDCF
:101DC80055F8043B98470136EEE755F8043B984729
:101DD8000136F2E7341E0008341E0008341E0008DD
:101DE800381E000802440346934200D1704703F8A6
:101DF800011BF9E7F8B500BFF8BC08BC9E46704760
:0C1E0800F8B500BFF8BC08BC9E4670474F
:101E14000006101600061016000000000000000066
:081E240001020304060708098E
:081E2C00CCE3FF7F0100000080
:041E3400AD010008F4
:041E38008901000814
:0C1E3C0001000000100000000024F40071
:0400000508001D5181
:00000001FF
