:020000040800F2
:10000000000002208D160008BD150008BF1500086D
:10001000C1150008C3150008C51500080000000040
:10002000000000000000000000000000C7150008EC
:10003000C915000800000000CB150008CD15000808
:10004000DD160008DD160008DD160008DD160008C4
:10005000DD160008DD160008D1150008DD160008C1
:10006000DD160008DD160008DD160008DD160008A4
:10007000DD160008DD160008DD160008DD16000894
:10008000DD160008DD160008DD160008DD16000884
:1000900011160008DD160008DD160008DD16000840
:1000A000DD160008DD160008DD160008DD16000864
:1000B000DD160008DD160008DD160008DD16000854
:1000C000DD160008DD160008DD160008DD16000844
:1000D000DD160008DD160008DD160008DD16000834
:1000E000DD160008DD160008DD160008DD16000824
:1000F000DD160008DD160008DD160008DD16000814
:10010000DD160008DD160008DD160008DD16000803
:10011000DD160008DD160008DD160008DD160008F3
:10012000DD160008DD160008DD160008DD160008E3
:10013000DD160008DD160008DD160008DD160008D3
:10014000DD160008DD160008DD160008DD160008C3
:10015000DD160008DD160008DD160008DD160008B3
:10016000DD160008DD160008DD160008DD160008A3
:10017000DD160008DD160008DD160008000000008E
:08018000DD160008DD16000881
:1001880010B5054C237833B9044B13B10448AFF3C9
:1001980000800123237010BD0C0000200000000027
:1001A8003817000808B5034B1BB103490348AFF3E0
:1001B800008008BD0000000010000020381700086B
:1001C80053B94AB9002908BF00281CBF4FF0FF31B6
:1001D8004FF0FF3000F06EB9ADF1080C6DE904CEB8
:1001E80000F006F8DDF804E0DDE9022304B070470A
:1001F8002DE9F047089D04468C46002B40F083808B
:100208008A42174647D9B2FA82F242B1C2F12000B7
:1002180024FA00F09140974040EA010C94404FEADC
:100228001748230CBCFBF8F61FFA87FE08FB16C11B
:1002380043EA014306FB0EF1994209D9FB1806F17E
:10024800FF3080F01981994240F21681023E3B440A
:100258005B1AA4B2B3FBF8F008FB103344EA03447A
:1002680000FB0EFEA64509D93C1900F1FF3380F0CA
:100278000581A64540F2028102383C4440EA064026
:10028800A4EB0E0400261DB1D4400023C5E90043A9
:100298003146BDE8F08702B9FFDEB2FA82F2002AE1
:1002A80050D1CB1B4FEA174E1FFA87F80126B3FB34
:1002B800FEFC210C0EFB1C3341EA034108FB0CF346
:1002C8008B4207D979180CF1FF3002D28B4200F229
:1002D800E9808446C91AA3B2B1FBFEF00EFB1011E7
:1002E80043EA014408FB00F8A04507D93C1900F18E
:1002F800FF3302D2A04500F2D9801846A4EB0804C7
:1003080040EA0C40BFE78B4209D9002D00F0B180CC
:100318000026C5E9000130463146BDE8F087B3FA4A
:1003280083F6002E4AD18B4202D3824200F2B88073
:10033800841A61EB030101208C46002DA8D0C5E981
:10034800004CA5E7C2F1200320FA03F6974001FA12
:1003580002F04FEA174ED9403043030CB1FBFEF6CA
:100368001FFA87F80EFB161143EA014306FB08F152
:10037800994204FA02F409D9FB1806F1FF3C80F00F
:100388008D80994240F28A80023E3B445B1A81B2DA
:10039800B3FBFEF00EFB103341EA034100FB08F308
:1003A8008B4207D9791800F1FF3C73D28B4271D97F
:1003B80002383944CB1A40EA064678E7C6F1200CE1
:1003C80003FA06F422FA0CF31C4320FA0CF701FA9C
:1003D80006F34FEA144E21FA0CF11F433B0CB1FB14
:1003E800FEF91FFA84F80EFB191143EA014109FBD3
:1003F80008FA8A4502FA06F200FA06F308D96118E3
:1004080009F1FF3048D28A4546D9A9F102092144A9
:10041800A1EB0A01BFB2B1FBFEF00EFB101147EAD7
:10042800014700FB08F8B84507D9E71900F1FF3183
:100438002ED2B8452CD90238274440EA0940A7EB08
:100448000807A0FB02894F45C64649461AD317D06C
:100458005DB1B3EB0E0267EB010707FA0CFCF24043
:100468004CEA0202F740C5E9002700263146BDE8FC
:10047800F0872E4628460BE70646E9E61846FDE6CD
:100488004345E5D2B8EB020E69EB04010138DFE71A
:100498000846D2E760468DE78146B9E7664675E7C4
:1004A80030464AE7ACF1020C394413E702383C44C1
:1004B80024E700BF704700BF38B50E4A0E4B05460B
:1004C80018784FF47A73B3FBF0F31068B0FBF3F0CD
:1004D80000F0B2FB044658B90F2D09D80246294648
:1004E8004FF0FF3000F06AFB044B20461D6038BD1A
:1004F8000120FCE708000020000000200400002084
:1005080008B50B4B1A6842F400721A601A6842F474
:1005180080621A601A6842F480721A60032000F040
:100528003BFB0020FFF7C8FF00F0E6FF002008BDF6
:10053800003C0240034A044B11681B780B441360CB
:10054800704700BF2C00002000000020014B1868F5
:10055800704700BF2C00002038B5044600286ED034
:1005680090F820300BB900F0E5FF2268136823F0FB
:1005780002031360FFF7EAFF054623685A689107EC
:1005880051D41A6842F001021A60FFF7DFFF0546EE
:1005980023685A68D20754D5227E012A1A680CBFEC
:1005A80042F0800222F080021A60627E012A1A68F4
:1005B8000CBF42F0400222F040021A60A27E012ADB
:1005C8001A680CBF42F0200222F020021A60E27E74
:1005D800012A1A680CBF22F0100242F010021A60B9
:1005E800227F012A1A680CBF42F0080222F0080292
:1005F8001A60627F012A1A680CBF42F0040222F0D6
:1006080004021A60D4E902210A4321690A43616994
:100618000A43616801390A43DA61002001236062F4
:1006280084F8203038BDFFF791FF401B0A28A4D971
:10063800636A43F400336362052384F820300120A1
:10064800F0E7FFF783FF401B0A28A1D9F0E7000075
:1006580030B590F82030012B03D090F82030022BD1
:1006680075D13E4BD3F8002242F00102C3F80022B4
:10067800D3F8002222F47C52C3F80022D3F80022D7
:10068800486A42EA0022C3F800224A69D3F81C5299
:100698000120904025EA0005C3F81C52CD69C443E7
:1006A800002D35D1D3F80C522540C3F80C52CB6835
:1006B8008D8845EA0345D30003F1804303F5C84319
:1006C8000A88C3F840528D6842EA0542C3F84422BA
:1006D8008A69224B8ABBD3F804222240C3F8042239
:1006E8000A6972BBD3F814221440C3F814420B6A87
:1006F800012B1A4B02BFD3F81C221043C3F81C026B
:10070800D3F8002222F00102C3F80022002030BDF5
:10071800012DDDD1D3F80C520543C3F80C520B68F8
:100728008D8845EA0345D30003F1804303F5C843A8
:100738008A89C3F840528D68C6E7D3F80422024379
:10074800CCE7D3F814220243C3F81422CFE7436A54
:1007580043F4802343620120D9E700BF00640040CE
:1007680070B590F82030012B0446DDB220D1026824
:10077800022380F82030136823F001031360FFF789
:10078800E5FE064623685B6813F0010302D1636245
:100798001D460BE0FFF7DAFE801B0A28F2D9636AD0
:1007A80043F400336362052384F82030284670BD83
:1007B800436A43F4002343620125F7E7F0B590F854
:1007C8002040012C03D090F82040022C42D104682C
:1007D800A5686F0105D4A5682E0102D4A568ED00AF
:1007E80032D5A0680125C0F3016085401D60D1E9BC
:1007F800025700F1180315BB0D6847EA45551B0160
:10080800E550030104EB00100D69C0F88451097D1F
:10081800012902BFD0F8841141F48071C0F8841115
:1008280023445168C3F88C111268C3F88821D0F8A2
:10083800803143F00103C0F880310020F0BD4E68DC
:100848003D4345EAC605DAE7436A43F400134362C9
:100858000120F3E7436A43F48023F8E7F0B590F802
:100868002040012C03D090F82040022C71D106685A
:1008780041B9F468A40709D1436A43F400134362F9
:100888000120F0BD012901D13469F3E706EB011518
:100898000C01D5F8B07107F004079760002F4BD111
:1008A800D5F8B0717F0D1760D5F8B071C7F3400760
:1008B800D760D5F8B47107F00F071761D5F8B47190
:1008C800D5F8B4512644C7F307272D0C9761556115
:1008D800D6F8B8211A7002682244D2F8B821120A50
:1008E8005A7002682244D2F8B821120C9A70026831
:1008F8002244D2F8B821120EDA7002682244D2F8E3
:10090800BC211A7102682244D2F8BC21120A5A7119
:1009180002682244D2F8BC21120C9A71026814446D
:10092800D4F8BC21120EDA7159B90268D36843F0C1
:100938002003D3600020A4E7D5F8B071FF08576002
:10094800B2E70129F6D10268136943F02003136165
:10095800F0E7436A43F4802391E790F82030012BB5
:1009680003D090F82030022B05D10268536919434F
:10097800516100207047436A43F480234362012099
:1009880070477047704770477047704770477047A7
:100998007047704770477047704770472DE9F84FA8
:1009A80003685E69D3F804909F68D3F80CB0D3F855
:1009B80010A0D3F8188016F00104054622D017F0CD
:1009C800010407D00122B9079A6040F1A580FFF71A
:1009D800D8FF0024FB0509D52B684FF48072B805B1
:1009E8009A6040F1A7802846FFF7CCFFFB0309D5A2
:1009F8002B684FF48032B8039A6040F1A9802846EA
:100A0800FFF7C1FF330707D51BF0100F1FBF2B6877
:100A1800102244F40074DA60770708D51BF0080F39
:100A280005D02B680822DA602846FFF7B1FFB00727
:100A380006D52B68DB68990702D02846FFF7A7FF81
:100A4800720607D51AF0100F1FBF2B68102244F446
:100A580080641A61B30608D51AF0080F05D02B6810
:100A680008221A612846FFF795FFF70606D52B6876
:100A78001B69980702D02846FFF78BFFB10308D5FA
:100A880019F0100F05D02B6810225A602846FFF77E
:100A980082FFF20308D519F0080F05D02B68082249
:100AA8005A602846FFF778FF33042CD519F0040F55
:100AB8002A6826D0F70504D518F0010F18BF44F0AE
:100AC8000104B00504D518F0020F18BF44F0020461
:100AD800710504D518F0040F18BF44F00404330559
:100AE8000FD518F070030CD0402B4FD03ED8202BD8
:100AF80046D0302B47D0102B3FD0936923F070039A
:100B08009361042353602CB16B6A1C436C622846C2
:100B1800FFF743FFBDE8F88F7A0705D417F00804FC
:100B280005D1FFF731FF55E74FF4006452E74FF462
:100B380080544FE7790502D544F4005456E73A0546
:100B480002D544F4804451E72846FFF71EFF4DE7DD
:100B5800790302D544F4004454E73A0302D544F437
:100B680080344FE72846FFF711FF4BE7502B10D092
:100B7800602BC2D144F48074BFE744F00804BCE79A
:100B880044F01004B9E744F02004B6E744F0400408
:100B9800B3E744F08004B0E70749CA6822F4E0628A
:100BA8000302120403F4E063120C134343F0BF631F
:100BB80043F40033CB60704700ED00E0164B30B5CE
:100BC800DC68C4F30224C4F10705231D042D28BFE3
:100BD8000425062B4FF0FF338CBF033C002403FA97
:100BE80005F521EA0501A34022EA0302A1400028F5
:100BF80041EA0203ACBF00F16040084A4FEA031320
:100C0800B8BF00F00F00DBB2AABF00F56140135473
:100C180080F8003330BD00BF00ED00E014ED00E0C7
:100C28004209012300F01F0003FA00F0014B43F8CA
:100C38002200704700E100E00138B0F1807F0AD25D
:100C4800064B074A5860F02182F82310002007223B
:100C580098601A6070470120704700BF10E000E0FC
:100C680000ED00E02DE9F04F6E4ADFF8C081DFF8B3
:100C7800C09185B000230C6801279F4007EA04054E
:100C880037EA040440F0B9804C6824F0100ABAF13D
:100C9800020F16D14FEAD30E00EB8E0E03F0070BAE
:100CA800DEF820604FEA8B0B4FF00F0C0CFA0BFCB0
:100CB80026EA0C0C0E6906FA0BF646EA0C06CEF884
:100CC8002060D0F800B04FEA430E4FF0030C0CFA46
:100CD8000EFC6FEA0C062BEA0C0B04F0030C0CFA62
:100CE8000EFC0AF1FF3A4CEA0B0CBAF1010F01961F
:100CF800C0F800C015D8D0F808C006EA0C0CCE68B9
:100D080006FA0EFA4AEA0C0CC0F808C0D0F804C07B
:100D18002CEA0707C4F3001C0CFA03FC4CEA07078B
:100D28004760C768019E37408E6806FA0EF63E4354
:100D3800C660E60061D54FF0000BCDF80CB0D8F8CE
:100D48004470394E47F48047C8F84470D8F8447066
:100D580007F480470397039F23F0030707F18047B1
:100D680007F59C3703F0030ED7F808A04FEA8E0E5C
:100D78004FF00F0C0CFA0EFCB0422AEA0C0C43D0D0
:100D880006F58066B04241D006F58066B0423FD095
:100D980006F58066B0423DD006F58066B0423BD08D
:100DA80048453BD006F50066B04239D006F5806666
:100DB800B0420CBF0726082606FA0EF646EA0C06CD
:100DC800BE601668EF4314F4803F0CBF3E402E43CC
:100DD8001660566814F4003F0CBF3E402E43566020
:100DE800966814F4801F0CBF3E402E439660D66868
:100DF800A40254BF3E402E43D6600133102B7FF42B
:100E08003AAF05B0BDE8F08F5E46D5E70126D3E7D7
:100E18000226D1E70326CFE70426CDE70526CBE750
:100E28000626C9E7003C01400000024000380240A5
:100E3800001402400369194214BF012000207047C2
:100E48000AB1816170470904FBE77047044A516998
:100E5800014208B502D05061FFF7F7FF08BD00BF97
:100E6800003C01402DE9F341044618B9012002B0C5
:100E7800BDE8F0810368DD0710D4236898075BD4C8
:100E880023681A0700F19D8023685B0700F1BB8087
:100E9800A269002A40F01C810020E8E7A54B9A6867
:100EA80002F00C02042A07D09A6802F00C02082A01
:100EB8000AD15A68510207D59E4B1B689A03DCD5A4
:100EC8006368002BD9D1D1E76268B2F5803F11D1B0
:100ED8001A6842F480321A60FFF738FB954E0546CF
:100EE80033689B03C9D4FFF731FB401B6428F7D94B
:100EF8000320BCE78F4DB2F5A02F2B6807D143F430
:100F080080232B602B6843F480332B60E4E723F4C1
:100F180080332B602B6823F480232B60002ADBD1DD
:100F2800FFF714FB06462B689F03A6D5FFF70EFBB9
:100F3800801B6428F7D9DBE77E4B9A6812F00C0F08
:100F480007D09A6802F00C02082A11D15B685E0289
:100F58000ED4784B1A68950702D5E268012A85D124
:100F68001A68216922F0F80242EAC1021A6087E78A
:100F7800E268714BB2B101221A60FFF7E7FA6D4DD2
:100F880006462B68980707D52B68226923F0F803D3
:100F980043EAC2032B6073E7FFF7D8FA801B0228E5
:100FA800EFD9A5E71A60FFF7D1FA624E0546336814
:100FB80099077FF565AFFFF7C9FA401B0228F6D9F4
:100FC80096E762695D4B7AB101221A60FFF7BEFAB3
:100FD800584E0546736F9F073FF556AFFFF7B6FAB1
:100FE800401B0228F6D983E71A60FFF7AFFA514E83
:100FF8000546736F98077FF547AFFFF7A7FA401BC1
:101008000228F6D974E74B4B1A6C12F0805228D19B
:1010180001921A6C42F080521A641B6C03F08053E0
:101028000193019B0127464D2B68D9051BD5A36861
:10103800404D012B27D12B6F43F001032B67FFF79E
:1010480085FA3C4E054641F28838336F9B0739D5FF
:10105800002F3FF41DAF374A136C23F080531364FD
:1010680016E70027DFE72B6843F480732B60FFF750
:101078006DFA06462B68DA05D9D4FFF767FA801BA4
:101088000228F7D934E7052B04D12B6F43F004036A
:101098002B67D0E72A6F22F001022A672A6F22F015
:1010A80004022A67002BCAD1FFF750FA41F28838A8
:1010B80006462B6F9807CBD5FFF748FA801B4045AB
:1010C800F7D915E7FFF742FA401B4045BDD90FE7AE
:1010D800184DAB6803F00C03082B3FF4C7AE194E4C
:1010E8000023022A336035D1FFF730FA07462B6810
:1010F800990129D4D4E907321343626A43EA821377
:10110800E26A43EA0263A26A5208013A43EA0243E6
:101118006B6001233360FFF719FA064D04462B680C
:101128009A013FF5B9AEFFF711FA001B0228F6D96C
:10113800DEE600BF0038024000004742800E47420A
:101148000070004060004742FFF700FAC01B022809
:10115800CDD9CDE6FFF7FAF904462B689B017FF558
:101168009BAEFFF7F3F9001B0228F6D9C0E600BFD3
:10117800134908B58B6803F00C03042B1CD0082B0B
:101188001CD14A684B68496813F4800314BF0D48A2
:101198000D48C1F3881118BF002302F03F02A1FBDC
:1011A8000001FFF70DF8064B5B68C3F301430133F9
:1011B8005B00B0FBF3F008BD0248FCE70248FAE721
:1011C8000038024000127A000024F4002DE9F041B2
:1011D8000D46044610B90120BDE8F081434B1A685A
:1011E80002F00F028A4227D3226897072CD4D0072F
:1011F80040D43E4B1A6802F00F02AA4265D8226812
:1012080051076BD4130707D5394A2169936823F42A
:10121800604343EAC1039360FFF7AAFF344B354AA2
:101228009B68C3F30313D35CD840334B186000208A
:10123800FFF742F90020CFE7CAB21A701B6803F023
:101248000F038B42C7D1CFE7294B12F0040F1EBF03
:10125800996841F4E0519960160742BF996841F4D2
:10126800604199602249A0688B6823F0F00303432A
:101278008B60BCE762681E4B012A1CD11B6813F403
:10128800003FA8D01A4EB36823F003031343B3609A
:10129800FFF75CF941F288380746B368626803F0E3
:1012A8000C03B3EB820FA4D0FFF750F9C01B4045E5
:1012B800F3D9032090E7911E01291B6802D813F087
:1012C800007FDEE713F0020FDBE7EAB21A701B6853
:1012D80003F00F03AB427FF47EAF90E70449E06868
:1012E8008B6823F4E05303438B608BE7003C024098
:1012F80000380240501700080800002030B595B0AB
:10130800102200210AA800F00BFA0021142203A8D9
:1013180000F006FA00241C4B01941A6C42F080522B
:101328001A641B6C03F080530193019B174B0294C2
:101338001A6842F480421A601B6803F480430293DF
:10134800029B01224FF48033CDE9082302254FF494
:101358008003A822CDE90E5308A80423CDE9103252
:10136800CDE91253FFF77EFD0F23CDE903354FF486
:10137800A0514FF48053CDE9061303A80521059425
:10138800FFF724FF15B030BD003802400070004060
:1013980080B58AB0FFF7B4F8FFF7B0FF1422002138
:1013A8000DEB020000F0BCF90024464B01941A6BC7
:1013B8004548464EDFF83C8142F080021A631A6BBA
:1013C80002F080020192019A02941A6B42F0010223
:1013D8001A631A6B02F001020292029A03941A6BC2
:1013E80042F008021A631A6B02F008020392039A89
:1013F80004941A6B42F002021A631B6B03F0020397
:10140800224604934FF47041049BFFF719FD304BBB
:1014180030480127022505A9CDE905730795FFF78F
:1014280021FC4FF47043284805A9CDE90537CDE9DB
:101438000744FFF717FC224621460620FFF7BEFBAC
:101448000620FFF7EDFB244AB4611523C6E9002303
:101458004FF410214FF480033046C6E90413C6E95F
:101468000244B483FFF778F83046FFF779F9294644
:101478003046FFF772FA194B194D1F610422C3E970
:101488000224184A5A60184B2F624FF6FC50C5E9DF
:10149800000329463046C5E90444C5E90283C5E985
:1014A8000647FFF7D5F8114B6F614DF28254C5E935
:1014B800004329460E4BC5F808803046EB60FFF71D
:1014C800C7F8FEE700380240000C024090000020F8
:1014D8000000111000000240006400405C00002081
:1014E8003000002098FB12000480FCFD040082D527
:1014F8000480FFFFFFFF070082B00D4B0021009121
:101508005A6C42F480425A645A6C02F48042009247
:10151800009A01911A6C42F080521A641B6C03F015
:1015280080530193019B072002B0FFF735BB00BF32
:101538000038024010B5044688B01422002103A8E0
:1015480000F0EEF82268194B9A422CD103F5EA33E1
:10155800002401941A6C164842F000721A641A6C3E
:1015680002F000720192019A02941A6B42F0020290
:101578001A631B6B059403F0020302934FF4407245
:10158800029B0223CDE9032303210923CDE9061396
:1015980003A9FFF767FB142001222146FFF70EFB82
:1015A8001420FFF73DFB08B010BD00BF00640040E9
:1015B800000402407047FEE7FEE7FEE7FEE77047DB
:1015C80070477047FEF7B6BF10B50120FFF73EFC25
:1015D80008480121FFF72EFC50B1074A0749137844
:1015E800074801331370BDE81040064BFFF7E6B813
:1015F80010BD00BF00000240280000205C00002051
:10160800900000205800002010B5074C0748FFF74D
:10161800C5F9074A054823460021FFF71FF9237833
:10162800044A1B03536110BD2900002090000020CC
:1016380074000020000C02400F49D1F8883043F4B0
:101648007003C1F888300D4B1A68002042F001027F
:101658001A6098601A6822F0847222F480321A6044
:10166800074A5A601A6822F480221A60D8604FF03C
:1016780000638B60704700BF00ED00E00038024057
:1016880010300024DFF834D0002103E00C4B5B5805
:10169800435004310B480C4B42189A42F6D30B4A7C
:1016A80002E0002342F8043B094B9A42F9D3FFF7C2
:1016B800C3FF00F011F8FFF76BFE7047000002202F
:1016C80070170008000000200C0000200C0000200B
:1016D800B8000020FEE7000070B50D4D0D4C641BEE
:1016E800A4100026A64209D10B4D0C4C00F020F89E
:1016F800641BA4100026A64205D170BD55F8043B12
:1017080098470136EEE755F8043B98470136F2E76B
:101718006817000868170008681700086C170008A1
:1017280002440346934200D1704703F8011BF9E7CE
:10173800F8B500BFF8BC08BC9E467047F8B500BFB6
:08174800F8BC08BC9E46704786
:101750000000000000000000010203040607080961
:0817600098EAFF7F0100000080
:04176800AD010008C7
:04176C0089010008E7
:0C17700001000000100000000024F40044
:040000050800168D4C
:00000001FF
